:100000006F003005000000004A0100004E010000B2
:1000100000000000000000000000000000000000E0
:1000200000000000000000000000000000000000D0
:10003000200800000000000022080000000000006E
:100040002408000026080000280800002A080000F4
:100050002C0800002E0800003008000032080000C4
:100060003408000036080000380800003A08000094
:100070003C0800003E080000400800004208000064
:100080004408000046080000480800004A08000034
:100090004C0800004E08000050080000000000005E
:1000A000511126C022C206C4828282441244A24058
:1000B000310182802A86014593F6150091C232955E
:1000C00085810606F5F9828000000000634E050276
:1000D00063C305042E86AA857D5515C285466378BF
:1000E000B6006356C00006068606E36CB6FE014500
:1000F00063E4C500918D558D85820582F5FA828075
:100100008682C93F2E8582823305A04063D70500D1
:10011000B305B040C1B7B305B0408682653F330533
:10012000A0408282868263C70500634905005D376F
:100130002E858282B305B040E35B05FE3305A04007
:10014000513F3305B040828200007300203001A08F
:10015000EFF21FF5511185451305000202C002C2DE
:1001600002C4EF001010F5477C803715014093075B
:1001700080043EC48A858947130505403EC2EF00CE
:10018000807531011DB7EFF2BFF111651111854581
:100190001305050202C002C202C402C602C802CA96
:1001A00002CCEF00100C930700027C803714014052
:1001B0008D473EC28A85E147130504403EC4EF00E7
:1001C0008071930700047C808A8591471305044061
:1001D0003EC4EF0040708967374401409387075859
:1001E0003EC66C00B7070C00130504803ECA02C867
:1001F000231C0100EF00B00E854513050480EF00BD
:10020000D01A71015DB5EFF2BFE9B707002013877F
:10021000C703A94614B32CA328B311471385C703FA
:10022000238EE702F92613052003EF005020B5BD09
:10023000EFF21FE70945EF00A0789D2BEF00501863
:10024000013F9137112A1305803EEF00501E892689
:1002500011E1E1263714014013040440854522854D
:10026000EF00C07449E985451305F00F693F8545E6
:100270002285EF00A07365DDB70700200547238CBA
:10028000E70291452285EF00607251E1894513052F
:10029000F00F953F91452285EF00407165DDB7076E
:1002A00000200547A38CE702A1452285EF000070DE
:1002B0003DE98D451305F00FB937A1452285EF00C3
:1002C000E06E65DDB70700200547238DE702C145D5
:1002D0002285EF00A06D25E591451305F00F253728
:1002E000C1452285EF00806C65DDB707002005471A
:1002F000A38DE702A5B7B70700209387870398234C
:1003000049D38545014523800700F53D9DBFB707CB
:10031000002093879703982341DB8945014523807B
:100320000700D53551B7B70700209387A703982357
:1003300059DF8D45014523800700F13549BFB707D7
:1003400000209387B7039823E30A07F091450145FE
:10035000238007004D3D19B7EFF29FD405650111C9
:100360008545410502C002C202C402C602C802CAD3
:1003700002CC231E0100EF00C06E91470D447C802B
:100380008A859147371501403EC422C2A9232147DF
:10039000C1448A8537150140788026C422C2252BA6
:1003A0008A8537150140648026C422C22D23130795
:1003B0000006E1448A8537150140788026C422C2B0
:1003C000192B1307000891478A853715014078805B
:1003D0003EC422C20923B70704013EC66C00B7071A
:1003E0000002373501403ECA26CC02C8EF00406902
:1003F000854537350140EF00C06B05617DB1EFF2F7
:100400003FCAAA841304401F894537350140EF00D5
:10041000606C0DC5A68537350140EF00206B1304D5
:10042000401F854537350140EF00C06A19CD37358B
:100430000140EF00E0691375F50F39A07D14420407
:10044000418079F01305F00F8DB17D144204418095
:1004500069F8CDBFEFF2DFC40146C1453715014051
:10046000992BA1B1EFF2DFC30546C1453715014015
:10047000992325B9EFF2DFC20546A14537150140A2
:100480001D2B25B1EFF2DFC10146A1453715014013
:100490001D2321B9EFF2DFC061112EC02AC25D3FDA
:1004A0001245B13F82452A842E85913F653F2285C2
:1004B0002101E5BEEFF2DFBE71112AC0613F0245A6
:1004C0003D3F01452D3F2AC0713F02451101F1BE5C
:1004D000EFF21FBD61112E8432C02AC2A53F124522
:1004E000393F0246AA8422966316C400A53F26859A
:1004F000210165BE05040345F4FF32C009370246F9
:10050000E5B7EFF2FFB961112E8432C02AC29937E4
:100510001245F5350246AA8422966316C40099371F
:100520002685210159B61305F00F32C0C93D08A038
:1005300002460504DDB7EFF2BFB671112AC0993744
:100540008245130600021305000A593725379145E5
:1005500037150140A1298547E30BF5FE1D45993F5D
:100560002A84AA851305700235379377040189CB55
:100570009305F00F1305100E313F4145110135B6BB
:10058000137404021305F00F75D813050002FDB7AC
:10059000EFF21FB18567938787C69843DC2341112B
:1005A00015468A85130500033AC05C8202C42306FF
:1005B0000100393F15462C004145A1371884C54735
:1005C00005456316F7029884930720026311F7022A
:1005D000188593073003631CF70098859307400440
:1005E0006317F70008861305B5FA3335A0004101FB
:1005F0006DBCEFF2FFAA2A847135B94513050002DC
:10060000513D8D3D3D45FD2322853537A53DBD45F9
:10061000130500024135B93D49BCEFF27FA89D3575
:100620009305000213051003B5359305F00F13056C
:10063000200E8D3585651546938585C71305000306
:10064000413D85651546938505C71305A0024935CB
:100650008545130510023D3D8545130520021D3DCE
:10066000E945130540023D358145130550021D350E
:10067000BD4513056002393DBD4513050002193D16
:10068000D53B6FF09FA2B71702409843B706FFFC17
:1006900061111367170098C3D843758FD8C3984367
:1006A000B706F7FEFD16758F98C39843B706FCFF93
:1006B000FD16758F98C3D843C176FD16758FD8C3C4
:1006C00037079F0098C7984F1367070298CF3717CF
:1006D0000140832607401306074093F6F6F02320D7
:1006E000D7408326074093E606082320D7400947D2
:1006F00018CA02C002C2984FB706014021661367AC
:10070000170098CFD842518FD8C29843C166370698
:100710000200558F98C3B716024009679C42F18FBB
:100720003EC2824785073EC0924781E78247E397F2
:10073000E7FEB71702409C431397E700635807068C
:1007400085473EC2124785476310F706B727024028
:100750009843C176FD16719B98C3984313671700A1
:1007600098C3B7170240D843D8C3D843758FD8C3AE
:10077000D843C166558FD8C39843B7060001558F3B
:1007800098C3984393166700E3DD06FED843B71677
:100790000240719BD8C3D84313672700D8C32147B1
:1007A000DC42B18BE39EE7FE2101828002C259BF89
:1007B000EFF21F8F371702405C4337040020914649
:1007C000B18B130404016385D700A1466382D7046B
:1007D000B7376E01938707601CC0B7160240DC4232
:1007E0000840918313F7F700B707002093870700AD
:1007F000BA978C23DC4293F5F50F93F7070833572C
:10080000B50081E7EFF01F8D2A8718C06FF0FF89D0
:100810005C43B777DC02938707C07DBF01A001A0CE
:1008200001A001A001A001A001A001A001A001A0C0
:1008300001A001A001A001A001A001A001A001A0B0
:1008400001A001A001A001A001A001A001A001A0A0
:1008500001A097010020938161FE138181FC17059F
:1008600000001305254297F5FF1F9385A57917F61C
:10087000FF1F1306A67C63FAC5008322050023A090
:10088000550011059105E3EAC5FE17F5FF1F130595
:10089000E57A9385C1826377B500232005001105B1
:1008A000E36DB5FE93020008739002308D427390A1
:1008B000428097F2FFFF9382E27493E232007390DA
:1008C0005230EFF05FDC970200009382A2967390A3
:1008D0001234730020309C45611122C226C013F7E8
:1008E000070113F3F70001C7D8413363E3009221F6
:1008F0001377F60F29C783230500014713048002ED
:10090000930480048546B395E600B376B6006392FF
:10091000D50293122700BD46B396560093C6F6FF44
:10092000B3F37600B3125300B3E372006397870604
:100930004CC90507A146E317D7FC23207500130710
:10094000F00F6378C70483234500A1461304800297
:10095000930480040547B312D7003377560063949D
:10096000E202139726000117BD45B395E50093C534
:10097000F5FFB3F375003317E300B36377006392B9
:100980008702232A550085064147E395E6FC23228A
:1009900075001244824421018280E39C97F80CC9BF
:1009A00049BFE39297FE23285500F1BF08456D8D9E
:1009B0003335A000828019C20CC982804CC9828064
:1009C00023A2A1828280EFF2AFED371702405C4391
:1009D00091462A84B18B6385D700A146638DD706E3
:1009E000B7376E01938707601CC0B7160240DC4220
:1009F000918313F7F700B707002093878702BA9710
:100A00008C23DC42184093F5F50F93F70708335514
:100A1000B70081E73A85EFF0EFEB48C008C448C45F
:100A2000B7170240DC43AD83FD8B13D737008A072D
:100A3000F18BD98F93F637010D476373D700D11728
:100A40003707002013074701BA978C23EFF08FE890
:100A500008C86FF08FE55C43B777DC02938707C067
:100A600061B799C5371702401C4F5D8D08CF828052
:100A7000B7170240984F1345F5FF798D88CF8280D4
:100A80001A218D6793870704B6217D8F9E21D58F0C
:100A9000D621D58FF621D58F9625D58FB625D58F22
:100AA000D625D58FF625D58FD98F1EA19E291EA9B3
:100AB00082801E2189C593E707041EA18280C20798
:100AC000C18393F7F7FBC207C183C5BF4EA58280E0
:100AD0004A2582800A256D8D3335A0008280EFF291
:100AE0002FDC1629F577FD17F58FF621DA25211170
:100AF000D58F1EA95625FD779387379FF58FD62171
:100B00002A842EC0D58F9625D58FB625D58F5EA584
:100B10005E29C207C18393F7F7CF5D8F5AA94800BA
:100B20005D35B74701409387078082456312F4061D
:100B3000C2475A24139517003E9542070E05418778
:100B40003E958C41635807048605EFF0AFD89305B6
:100B500040062AC0EFF00FD8824793144500930552
:100B600040063E85EFF0CFD95E24C207C18763D52A
:100B700007020E059305400613052503EFF08FD5F8
:100B80001D89C98CC204C18006A461016FF0EFD138
:100B9000B24745B78A0555BF1205930540061305B0
:100BA0002503EFF02FD33D89E9BF91C55E25096785
:100BB000D98F5EA582805A25F977FD17F98FD5BFA9
:100BC000EFF20FCEB707002003A50701B7157A0093
:100BD00093850520EFF00FD01375F50F2385A182C3
:100BE00093175500898F8A073E950E052394A1829D
:100BF0006FF0AFCBEFF2CFCA37F400E05C40AA85CC
:100C0000F99B5CC003C5A182EFF0CFCA08C82324BA
:100C100004001C4093E717001CC0B7F700E0D8435E
:100C2000058B75DF9843799B98C36FF00FC8EFF27F
:100C30002FC737F400E05C40AA85F99B5CC003D560
:100C40008182EFF02FC708C8232404001C4093E7DB
:100C500017001CC0B7F700E0D843058B75DF984339
:100C6000799B98C36FF06FC4112233445500000084
:100C7000FFFFFFFFFF000000FFFFFFFFFF0000007E
:100C8000010203040506070801020304050607081C
:100C9000006CDC020204060804080C10081018207E
:100CA0001020304020406080010203040506070840
:080CB000010203040506070818
:00000001FF
